:10000000B700000067808000735040307350403468
:100010009300000013010000930100001302000090
:100020009302000013030000930300001304000078
:1000300093040000930600001307000093070000DC
:100040001308000093080000130900009309000042
:10005000130A0000930A0000130B0000930B00002A
:10006000130C0000930C0000130D0000930D000012
:10007000130E0000930E0000130F0000930F0000FA
:100080009701010093810178F32340F1B70200004A
:100090009382020063F472006F0080421701020035
:1000A000130141F6B712000093820280638C0300B3
:1000B00013830300138E0200B382C2011303F3FF04
:1000C000E31C03FE33015140330401006F00400084
:1000D000130101FF23261100232481002322910014
:1000E00023202101F32640F1130406009384050028
:1000F000130905001385060097000000E7804021E2
:100100006306050697000000E780402037050100E0
:1001100013050500B70501009385050063F8A500E8
:1001200023A0050093854500E3ECA5FE37050100FB
:100130009305050037050100130505006378B50236
:10014000130645006364B600930506001346F5FFE9
:10015000B305B6009385450013F6C5FFB70500004B
:100160009385055397000000E78040359700000015
:10017000E780401B13050900938504001306040063
:1001800097000000E7800015731000C0130101FC08
:100190002320110023225100232461002326710013
:1001A0002328C101232AD101232CE101232EF101AF
:1001B0002320A1022322B1022324C1022326D1023B
:1001C0002328E102232AF102232C0103232E110309
:1001D00033050100EF00C0048320010083224100A9
:1001E000032381008323C100032E0101832E4101DB
:1001F000032F8101832FC1010325010283254102C1
:10020000032681028326C1020327010383274103BA
:10021000032881038328C1031301010473002030E4
:10022000F325203463C60500170300006700830D23
:1002300013951500135515009305C0006370B502A2
:1002400013152500B70500009385054F3385A500DC
:100250000323050063040300670003001703000085
:100260006700830A37050200930580042300B50068
:10027000930550062300B5009305C0062300B50082
:100280002300B5001306F0062300C5009306C00244
:100290002300D500930600022300D50093067007C3
:1002A0002300D5002300C500130620072300C50046
:1002B0002300B500930540062300B5009305100206
:1002C0002300B5009305A0002300B500678000005F
:1002D000130101FF2326110097000000E780C0F8FA
:1002E000370500001305454CB70500001386054E81
:1002F0009305E00097000000E780C009731000C07C
:100300006F0000006F0000006780000063060500BA
:10031000730050106FF0DFFF1305100067800000BE
:10032000370500001305C5187310553067800000AD
:100330000F0030036F0000006780000037E511EF09
:100340001305B5DBB7957CEC9385653767800000B6
:10035000130101FE232E110037060000130606527A
:100360002324C10037060000130606522326C100CD
:100370002328A100232AB10013051000230CA1009B
:100380001305810097000000E780C0FA731000C0D9
:10039000130101FD232611022320A1022322B10211
:1003A000130501022328A10013051000232AA10030
:1003B000232401003705000013050552232CA1005A
:1003C000232E01001305810093050600970000000D
:1003D000E78040F8731000C09306F00063F6C6088B
:1003E000B306A04093F636003307D50063800602BB
:1003F0009307050013880500830808002380170170
:100400009387170013081800E3E8E7FEB385D500CB
:100410003306D6409377C6FF13F83500B306F700CE
:10042000630A080413F3C5FF832203006352F00636
:1004300013183800B308004193F8880113034300F0
:1004400083230300B3D20201339E1301B3625E0023
:100450002320570013074700130343009382030030
:10046000E360D7FE6F00C002930605006318060222
:100470006F004004635EF0001388050083280800C5
:10048000232017011307470013084800E368D7FE2D
:10049000B385F50013763600630E06003386C6007A
:1004A000038705002380E6009386160093851500D8
:1004B000E3E8C6FE6780000017030000670003F250
:0404C0006F000000C9
:1004C4006578706C696369742070616E69637372B6
:1004D400635C6D61696E2E7273000000D2040000CB
:1004E4000B000000160000000500000004030000DB
:1004F40004030000000000000403000004030000E3
:1005040004030000000000000403000004030000D2
:10051400040300000000000004030000380300008E
:0C05240000000000010000003C0300008B
:00000001FF
